{
  "_format": "hh-sol-artifact-1",
  "contractName": "MyToken",
  "sourceName": "contracts/NewNFT.sol",
  "abi": [
    {
      "inputs": [],
      "stateMutability": "nonpayable",
      "type": "constructor"
    },
    {
      "anonymous": false,
      "inputs": [
        {
          "indexed": true,
          "internalType": "address",
          "name": "owner",
          "type": "address"
        },
        {
          "indexed": true,
          "internalType": "address",
          "name": "approved",
          "type": "address"
        },
        {
          "indexed": true,
          "internalType": "uint256",
          "name": "tokenId",
          "type": "uint256"
        }
      ],
      "name": "Approval",
      "type": "event"
    },
    {
      "anonymous": false,
      "inputs": [
        {
          "indexed": true,
          "internalType": "address",
          "name": "owner",
          "type": "address"
        },
        {
          "indexed": true,
          "internalType": "address",
          "name": "operator",
          "type": "address"
        },
        {
          "indexed": false,
          "internalType": "bool",
          "name": "approved",
          "type": "bool"
        }
      ],
      "name": "ApprovalForAll",
      "type": "event"
    },
    {
      "anonymous": false,
      "inputs": [
        {
          "indexed": true,
          "internalType": "address",
          "name": "previousOwner",
          "type": "address"
        },
        {
          "indexed": true,
          "internalType": "address",
          "name": "newOwner",
          "type": "address"
        }
      ],
      "name": "OwnershipTransferred",
      "type": "event"
    },
    {
      "anonymous": false,
      "inputs": [
        {
          "indexed": true,
          "internalType": "address",
          "name": "from",
          "type": "address"
        },
        {
          "indexed": true,
          "internalType": "address",
          "name": "to",
          "type": "address"
        },
        {
          "indexed": true,
          "internalType": "uint256",
          "name": "tokenId",
          "type": "uint256"
        }
      ],
      "name": "Transfer",
      "type": "event"
    },
    {
      "inputs": [
        {
          "internalType": "address",
          "name": "to",
          "type": "address"
        },
        {
          "internalType": "uint256",
          "name": "tokenId",
          "type": "uint256"
        }
      ],
      "name": "approve",
      "outputs": [],
      "stateMutability": "nonpayable",
      "type": "function"
    },
    {
      "inputs": [
        {
          "internalType": "address",
          "name": "owner",
          "type": "address"
        }
      ],
      "name": "balanceOf",
      "outputs": [
        {
          "internalType": "uint256",
          "name": "",
          "type": "uint256"
        }
      ],
      "stateMutability": "view",
      "type": "function"
    },
    {
      "inputs": [
        {
          "internalType": "uint256",
          "name": "tokenId",
          "type": "uint256"
        }
      ],
      "name": "burn",
      "outputs": [],
      "stateMutability": "nonpayable",
      "type": "function"
    },
    {
      "inputs": [
        {
          "internalType": "uint256",
          "name": "tokenId",
          "type": "uint256"
        }
      ],
      "name": "getApproved",
      "outputs": [
        {
          "internalType": "address",
          "name": "",
          "type": "address"
        }
      ],
      "stateMutability": "view",
      "type": "function"
    },
    {
      "inputs": [
        {
          "internalType": "address",
          "name": "owner",
          "type": "address"
        },
        {
          "internalType": "address",
          "name": "operator",
          "type": "address"
        }
      ],
      "name": "isApprovedForAll",
      "outputs": [
        {
          "internalType": "bool",
          "name": "",
          "type": "bool"
        }
      ],
      "stateMutability": "view",
      "type": "function"
    },
    {
      "inputs": [],
      "name": "name",
      "outputs": [
        {
          "internalType": "string",
          "name": "",
          "type": "string"
        }
      ],
      "stateMutability": "view",
      "type": "function"
    },
    {
      "inputs": [],
      "name": "owner",
      "outputs": [
        {
          "internalType": "address",
          "name": "",
          "type": "address"
        }
      ],
      "stateMutability": "view",
      "type": "function"
    },
    {
      "inputs": [
        {
          "internalType": "uint256",
          "name": "tokenId",
          "type": "uint256"
        }
      ],
      "name": "ownerOf",
      "outputs": [
        {
          "internalType": "address",
          "name": "",
          "type": "address"
        }
      ],
      "stateMutability": "view",
      "type": "function"
    },
    {
      "inputs": [],
      "name": "renounceOwnership",
      "outputs": [],
      "stateMutability": "nonpayable",
      "type": "function"
    },
    {
      "inputs": [
        {
          "internalType": "address",
          "name": "to",
          "type": "address"
        },
        {
          "internalType": "string",
          "name": "uri",
          "type": "string"
        }
      ],
      "name": "safeMint",
      "outputs": [],
      "stateMutability": "nonpayable",
      "type": "function"
    },
    {
      "inputs": [
        {
          "internalType": "address",
          "name": "from",
          "type": "address"
        },
        {
          "internalType": "address",
          "name": "to",
          "type": "address"
        },
        {
          "internalType": "uint256",
          "name": "tokenId",
          "type": "uint256"
        }
      ],
      "name": "safeTransferFrom",
      "outputs": [],
      "stateMutability": "nonpayable",
      "type": "function"
    },
    {
      "inputs": [
        {
          "internalType": "address",
          "name": "from",
          "type": "address"
        },
        {
          "internalType": "address",
          "name": "to",
          "type": "address"
        },
        {
          "internalType": "uint256",
          "name": "tokenId",
          "type": "uint256"
        },
        {
          "internalType": "bytes",
          "name": "data",
          "type": "bytes"
        }
      ],
      "name": "safeTransferFrom",
      "outputs": [],
      "stateMutability": "nonpayable",
      "type": "function"
    },
    {
      "inputs": [
        {
          "internalType": "address",
          "name": "operator",
          "type": "address"
        },
        {
          "internalType": "bool",
          "name": "approved",
          "type": "bool"
        }
      ],
      "name": "setApprovalForAll",
      "outputs": [],
      "stateMutability": "nonpayable",
      "type": "function"
    },
    {
      "inputs": [
        {
          "internalType": "bytes4",
          "name": "interfaceId",
          "type": "bytes4"
        }
      ],
      "name": "supportsInterface",
      "outputs": [
        {
          "internalType": "bool",
          "name": "",
          "type": "bool"
        }
      ],
      "stateMutability": "view",
      "type": "function"
    },
    {
      "inputs": [],
      "name": "symbol",
      "outputs": [
        {
          "internalType": "string",
          "name": "",
          "type": "string"
        }
      ],
      "stateMutability": "view",
      "type": "function"
    },
    {
      "inputs": [
        {
          "internalType": "uint256",
          "name": "index",
          "type": "uint256"
        }
      ],
      "name": "tokenByIndex",
      "outputs": [
        {
          "internalType": "uint256",
          "name": "",
          "type": "uint256"
        }
      ],
      "stateMutability": "view",
      "type": "function"
    },
    {
      "inputs": [
        {
          "internalType": "address",
          "name": "owner",
          "type": "address"
        },
        {
          "internalType": "uint256",
          "name": "index",
          "type": "uint256"
        }
      ],
      "name": "tokenOfOwnerByIndex",
      "outputs": [
        {
          "internalType": "uint256",
          "name": "",
          "type": "uint256"
        }
      ],
      "stateMutability": "view",
      "type": "function"
    },
    {
      "inputs": [
        {
          "internalType": "uint256",
          "name": "tokenId",
          "type": "uint256"
        }
      ],
      "name": "tokenURI",
      "outputs": [
        {
          "internalType": "string",
          "name": "",
          "type": "string"
        }
      ],
      "stateMutability": "view",
      "type": "function"
    },
    {
      "inputs": [],
      "name": "totalSupply",
      "outputs": [
        {
          "internalType": "uint256",
          "name": "",
          "type": "uint256"
        }
      ],
      "stateMutability": "view",
      "type": "function"
    },
    {
      "inputs": [
        {
          "internalType": "address",
          "name": "from",
          "type": "address"
        },
        {
          "internalType": "address",
          "name": "to",
          "type": "address"
        },
        {
          "internalType": "uint256",
          "name": "tokenId",
          "type": "uint256"
        }
      ],
      "name": "transferFrom",
      "outputs": [],
      "stateMutability": "nonpayable",
      "type": "function"
    },
    {
      "inputs": [
        {
          "internalType": "address",
          "name": "newOwner",
          "type": "address"
        }
      ],
      "name": "transferOwnership",
      "outputs": [],
      "stateMutability": "nonpayable",
      "type": "function"
    }
  ],
  "bytecode": "0x60806040523480156200001157600080fd5b506040518060400160405280600781526020017f4d79546f6b656e000000000000000000000000000000000000000000000000008152506040518060400160405280600381526020017f4d544b0000000000000000000000000000000000000000000000000000000000815250816000908051906020019062000096929190620001a6565b508060019080519060200190620000af929190620001a6565b505050620000d2620000c6620000d860201b60201c565b620000e060201b60201c565b620002bb565b600033905090565b6000600b60009054906101000a900473ffffffffffffffffffffffffffffffffffffffff16905081600b60006101000a81548173ffffffffffffffffffffffffffffffffffffffff021916908373ffffffffffffffffffffffffffffffffffffffff1602179055508173ffffffffffffffffffffffffffffffffffffffff168173ffffffffffffffffffffffffffffffffffffffff167f8be0079c531659141344cd1fd0a4f28419497f9722a3daafe3b4186f6b6457e060405160405180910390a35050565b828054620001b49062000285565b90600052602060002090601f016020900481019282620001d8576000855562000224565b82601f10620001f357805160ff191683800117855562000224565b8280016001018555821562000224579182015b828111156200022357825182559160200191906001019062000206565b5b50905062000233919062000237565b5090565b5b808211156200025257600081600090555060010162000238565b5090565b7f4e487b7100000000000000000000000000000000000000000000000000000000600052602260045260246000fd5b600060028204905060018216806200029e57607f821691505b60208210811415620002b557620002b462000256565b5b50919050565b6139a380620002cb6000396000f3fe608060405234801561001057600080fd5b50600436106101375760003560e01c80636352211e116100b8578063a22cb4651161007c578063a22cb4651461034e578063b88d4fde1461036a578063c87b56dd14610386578063d204c45e146103b6578063e985e9c5146103d2578063f2fde38b1461040257610137565b80636352211e146102a857806370a08231146102d8578063715018a6146103085780638da5cb5b1461031257806395d89b411461033057610137565b806323b872dd116100ff57806323b872dd146101f45780632f745c591461021057806342842e0e1461024057806342966c681461025c5780634f6ccce71461027857610137565b806301ffc9a71461013c57806306fdde031461016c578063081812fc1461018a578063095ea7b3146101ba57806318160ddd146101d6575b600080fd5b6101566004803603810190610151919061273b565b61041e565b6040516101639190612783565b60405180910390f35b610174610430565b6040516101819190612837565b60405180910390f35b6101a4600480360381019061019f919061288f565b6104c2565b6040516101b191906128fd565b60405180910390f35b6101d460048036038101906101cf9190612944565b610508565b005b6101de610620565b6040516101eb9190612993565b60405180910390f35b61020e600480360381019061020991906129ae565b61062d565b005b61022a60048036038101906102259190612944565b61068d565b6040516102379190612993565b60405180910390f35b61025a600480360381019061025591906129ae565b610732565b005b6102766004803603810190610271919061288f565b610752565b005b610292600480360381019061028d919061288f565b6107ae565b60405161029f9190612993565b60405180910390f35b6102c260048036038101906102bd919061288f565b61081f565b6040516102cf91906128fd565b60405180910390f35b6102f260048036038101906102ed9190612a01565b6108a6565b6040516102ff9190612993565b60405180910390f35b61031061095e565b005b61031a610972565b60405161032791906128fd565b60405180910390f35b61033861099c565b6040516103459190612837565b60405180910390f35b61036860048036038101906103639190612a5a565b610a2e565b005b610384600480360381019061037f9190612bcf565b610a44565b005b6103a0600480360381019061039b919061288f565b610aa6565b6040516103ad9190612837565b60405180910390f35b6103d060048036038101906103cb9190612cf3565b610ab8565b005b6103ec60048036038101906103e79190612d4f565b610af1565b6040516103f99190612783565b60405180910390f35b61041c60048036038101906104179190612a01565b610b85565b005b600061042982610c09565b9050919050565b60606000805461043f90612dbe565b80601f016020809104026020016040519081016040528092919081815260200182805461046b90612dbe565b80156104b85780601f1061048d576101008083540402835291602001916104b8565b820191906000526020600020905b81548152906001019060200180831161049b57829003601f168201915b5050505050905090565b60006104cd82610c83565b6004600083815260200190815260200160002060009054906101000a900473ffffffffffffffffffffffffffffffffffffffff169050919050565b60006105138261081f565b90508073ffffffffffffffffffffffffffffffffffffffff168373ffffffffffffffffffffffffffffffffffffffff161415610584576040517f08c379a000000000000000000000000000000000000000000000000000000000815260040161057b90612e62565b60405180910390fd5b8073ffffffffffffffffffffffffffffffffffffffff166105a3610cce565b73ffffffffffffffffffffffffffffffffffffffff1614806105d257506105d1816105cc610cce565b610af1565b5b610611576040517f08c379a000000000000000000000000000000000000000000000000000000000815260040161060890612ef4565b60405180910390fd5b61061b8383610cd6565b505050565b6000600880549050905090565b61063e610638610cce565b82610d8f565b61067d576040517f08c379a000000000000000000000000000000000000000000000000000000000815260040161067490612f86565b60405180910390fd5b610688838383610e24565b505050565b6000610698836108a6565b82106106d9576040517f08c379a00000000000000000000000000000000000000000000000000000000081526004016106d090613018565b60405180910390fd5b600660008473ffffffffffffffffffffffffffffffffffffffff1673ffffffffffffffffffffffffffffffffffffffff168152602001908152602001600020600083815260200190815260200160002054905092915050565b61074d83838360405180602001604052806000815250610a44565b505050565b61076361075d610cce565b82610d8f565b6107a2576040517f08c379a000000000000000000000000000000000000000000000000000000000815260040161079990612f86565b60405180910390fd5b6107ab8161111e565b50565b60006107b8610620565b82106107f9576040517f08c379a00000000000000000000000000000000000000000000000000000000081526004016107f0906130aa565b60405180910390fd5b6008828154811061080d5761080c6130ca565b5b90600052602060002001549050919050565b60008061082b8361112a565b9050600073ffffffffffffffffffffffffffffffffffffffff168173ffffffffffffffffffffffffffffffffffffffff16141561089d576040517f08c379a000000000000000000000000000000000000000000000000000000000815260040161089490613145565b60405180910390fd5b80915050919050565b60008073ffffffffffffffffffffffffffffffffffffffff168273ffffffffffffffffffffffffffffffffffffffff161415610917576040517f08c379a000000000000000000000000000000000000000000000000000000000815260040161090e906131d7565b60405180910390fd5b600360008373ffffffffffffffffffffffffffffffffffffffff1673ffffffffffffffffffffffffffffffffffffffff168152602001908152602001600020549050919050565b610966611167565b61097060006111e5565b565b6000600b60009054906101000a900473ffffffffffffffffffffffffffffffffffffffff16905090565b6060600180546109ab90612dbe565b80601f01602080910402602001604051908101604052809291908181526020018280546109d790612dbe565b8015610a245780601f106109f957610100808354040283529160200191610a24565b820191906000526020600020905b815481529060010190602001808311610a0757829003601f168201915b5050505050905090565b610a40610a39610cce565b83836112ab565b5050565b610a55610a4f610cce565b83610d8f565b610a94576040517f08c379a0000000000000000000000000000000000000000000000000000000008152600401610a8b90612f86565b60405180910390fd5b610aa084848484611418565b50505050565b6060610ab182611474565b9050919050565b610ac0611167565b6000610acc600c611587565b9050610ad8600c611595565b610ae283826115ab565b610aec81836115c9565b505050565b6000600560008473ffffffffffffffffffffffffffffffffffffffff1673ffffffffffffffffffffffffffffffffffffffff16815260200190815260200160002060008373ffffffffffffffffffffffffffffffffffffffff1673ffffffffffffffffffffffffffffffffffffffff16815260200190815260200160002060009054906101000a900460ff16905092915050565b610b8d611167565b600073ffffffffffffffffffffffffffffffffffffffff168173ffffffffffffffffffffffffffffffffffffffff161415610bfd576040517f08c379a0000000000000000000000000000000000000000000000000000000008152600401610bf490613269565b60405180910390fd5b610c06816111e5565b50565b60007f780e9d63000000000000000000000000000000000000000000000000000000007bffffffffffffffffffffffffffffffffffffffffffffffffffffffff1916827bffffffffffffffffffffffffffffffffffffffffffffffffffffffff19161480610c7c5750610c7b8261163d565b5b9050919050565b610c8c8161171f565b610ccb576040517f08c379a0000000000000000000000000000000000000000000000000000000008152600401610cc290613145565b60405180910390fd5b50565b600033905090565b816004600083815260200190815260200160002060006101000a81548173ffffffffffffffffffffffffffffffffffffffff021916908373ffffffffffffffffffffffffffffffffffffffff160217905550808273ffffffffffffffffffffffffffffffffffffffff16610d498361081f565b73ffffffffffffffffffffffffffffffffffffffff167f8c5be1e5ebec7d5bd14f71427d1e84f3dd0314c0f7b2291e5b200ac8c7c3b92560405160405180910390a45050565b600080610d9b8361081f565b90508073ffffffffffffffffffffffffffffffffffffffff168473ffffffffffffffffffffffffffffffffffffffff161480610ddd5750610ddc8185610af1565b5b80610e1b57508373ffffffffffffffffffffffffffffffffffffffff16610e03846104c2565b73ffffffffffffffffffffffffffffffffffffffff16145b91505092915050565b8273ffffffffffffffffffffffffffffffffffffffff16610e448261081f565b73ffffffffffffffffffffffffffffffffffffffff1614610e9a576040517f08c379a0000000000000000000000000000000000000000000000000000000008152600401610e91906132fb565b60405180910390fd5b600073ffffffffffffffffffffffffffffffffffffffff168273ffffffffffffffffffffffffffffffffffffffff161415610f0a576040517f08c379a0000000000000000000000000000000000000000000000000000000008152600401610f019061338d565b60405180910390fd5b610f178383836001611760565b8273ffffffffffffffffffffffffffffffffffffffff16610f378261081f565b73ffffffffffffffffffffffffffffffffffffffff1614610f8d576040517f08c379a0000000000000000000000000000000000000000000000000000000008152600401610f84906132fb565b60405180910390fd5b6004600082815260200190815260200160002060006101000a81549073ffffffffffffffffffffffffffffffffffffffff02191690556001600360008573ffffffffffffffffffffffffffffffffffffffff1673ffffffffffffffffffffffffffffffffffffffff168152602001908152602001600020600082825403925050819055506001600360008473ffffffffffffffffffffffffffffffffffffffff1673ffffffffffffffffffffffffffffffffffffffff16815260200190815260200160002060008282540192505081905550816002600083815260200190815260200160002060006101000a81548173ffffffffffffffffffffffffffffffffffffffff021916908373ffffffffffffffffffffffffffffffffffffffff160217905550808273ffffffffffffffffffffffffffffffffffffffff168473ffffffffffffffffffffffffffffffffffffffff167fddf252ad1be2c89b69c2b068fc378daa952ba7f163c4a11628f55a4df523b3ef60405160405180910390a46111198383836001611772565b505050565b61112781611778565b50565b60006002600083815260200190815260200160002060009054906101000a900473ffffffffffffffffffffffffffffffffffffffff169050919050565b61116f610cce565b73ffffffffffffffffffffffffffffffffffffffff1661118d610972565b73ffffffffffffffffffffffffffffffffffffffff16146111e3576040517f08c379a00000000000000000000000000000000000000000000000000000000081526004016111da906133f9565b60405180910390fd5b565b6000600b60009054906101000a900473ffffffffffffffffffffffffffffffffffffffff16905081600b60006101000a81548173ffffffffffffffffffffffffffffffffffffffff021916908373ffffffffffffffffffffffffffffffffffffffff1602179055508173ffffffffffffffffffffffffffffffffffffffff168173ffffffffffffffffffffffffffffffffffffffff167f8be0079c531659141344cd1fd0a4f28419497f9722a3daafe3b4186f6b6457e060405160405180910390a35050565b8173ffffffffffffffffffffffffffffffffffffffff168373ffffffffffffffffffffffffffffffffffffffff16141561131a576040517f08c379a000000000000000000000000000000000000000000000000000000000815260040161131190613465565b60405180910390fd5b80600560008573ffffffffffffffffffffffffffffffffffffffff1673ffffffffffffffffffffffffffffffffffffffff16815260200190815260200160002060008473ffffffffffffffffffffffffffffffffffffffff1673ffffffffffffffffffffffffffffffffffffffff16815260200190815260200160002060006101000a81548160ff0219169083151502179055508173ffffffffffffffffffffffffffffffffffffffff168373ffffffffffffffffffffffffffffffffffffffff167f17307eab39ab6107e8899845ad3d59bd9653f200f220920489ca2b5937696c318360405161140b9190612783565b60405180910390a3505050565b611423848484610e24565b61142f848484846117cb565b61146e576040517f08c379a0000000000000000000000000000000000000000000000000000000008152600401611465906134f7565b60405180910390fd5b50505050565b606061147f82610c83565b6000600a6000848152602001908152602001600020805461149f90612dbe565b80601f01602080910402602001604051908101604052809291908181526020018280546114cb90612dbe565b80156115185780601f106114ed57610100808354040283529160200191611518565b820191906000526020600020905b8154815290600101906020018083116114fb57829003601f168201915b505050505090506000611529611962565b905060008151141561153f578192505050611582565b60008251111561157457808260405160200161155c929190613553565b60405160208183030381529060405292505050611582565b61157d84611979565b925050505b919050565b600081600001549050919050565b6001816000016000828254019250508190555050565b6115c58282604051806020016040528060008152506119e1565b5050565b6115d28261171f565b611611576040517f08c379a0000000000000000000000000000000000000000000000000000000008152600401611608906135e9565b60405180910390fd5b80600a600084815260200190815260200160002090805190602001906116389291906125ec565b505050565b60007f80ac58cd000000000000000000000000000000000000000000000000000000007bffffffffffffffffffffffffffffffffffffffffffffffffffffffff1916827bffffffffffffffffffffffffffffffffffffffffffffffffffffffff1916148061170857507f5b5e139f000000000000000000000000000000000000000000000000000000007bffffffffffffffffffffffffffffffffffffffffffffffffffffffff1916827bffffffffffffffffffffffffffffffffffffffffffffffffffffffff1916145b80611718575061171782611a3c565b5b9050919050565b60008073ffffffffffffffffffffffffffffffffffffffff166117418361112a565b73ffffffffffffffffffffffffffffffffffffffff1614159050919050565b61176c84848484611aa6565b50505050565b50505050565b61178181611c06565b6000600a600083815260200190815260200160002080546117a190612dbe565b9050146117c857600a600082815260200190815260200160002060006117c79190612672565b5b50565b60006117ec8473ffffffffffffffffffffffffffffffffffffffff16611d54565b15611955578373ffffffffffffffffffffffffffffffffffffffff1663150b7a02611815610cce565b8786866040518563ffffffff1660e01b8152600401611837949392919061365e565b602060405180830381600087803b15801561185157600080fd5b505af192505050801561188257506040513d601f19601f8201168201806040525081019061187f91906136bf565b60015b611905573d80600081146118b2576040519150601f19603f3d011682016040523d82523d6000602084013e6118b7565b606091505b506000815114156118fd576040517f08c379a00000000000000000000000000000000000000000000000000000000081526004016118f4906134f7565b60405180910390fd5b805181602001fd5b63150b7a0260e01b7bffffffffffffffffffffffffffffffffffffffffffffffffffffffff1916817bffffffffffffffffffffffffffffffffffffffffffffffffffffffff19161491505061195a565b600190505b949350505050565b606060405180602001604052806000815250905090565b606061198482610c83565b600061198e611962565b905060008151116119ae57604051806020016040528060008152506119d9565b806119b884611d77565b6040516020016119c9929190613553565b6040516020818303038152906040525b915050919050565b6119eb8383611e4f565b6119f860008484846117cb565b611a37576040517f08c379a0000000000000000000000000000000000000000000000000000000008152600401611a2e906134f7565b60405180910390fd5b505050565b60007f01ffc9a7000000000000000000000000000000000000000000000000000000007bffffffffffffffffffffffffffffffffffffffffffffffffffffffff1916827bffffffffffffffffffffffffffffffffffffffffffffffffffffffff1916149050919050565b611ab28484848461206d565b6001811115611af6576040517f08c379a0000000000000000000000000000000000000000000000000000000008152600401611aed9061375e565b60405180910390fd5b6000829050600073ffffffffffffffffffffffffffffffffffffffff168573ffffffffffffffffffffffffffffffffffffffff161415611b3e57611b3981612193565b611b7d565b8373ffffffffffffffffffffffffffffffffffffffff168573ffffffffffffffffffffffffffffffffffffffff1614611b7c57611b7b85826121dc565b5b5b600073ffffffffffffffffffffffffffffffffffffffff168473ffffffffffffffffffffffffffffffffffffffff161415611bc057611bbb81612349565b611bff565b8473ffffffffffffffffffffffffffffffffffffffff168473ffffffffffffffffffffffffffffffffffffffff1614611bfe57611bfd848261241a565b5b5b5050505050565b6000611c118261081f565b9050611c21816000846001611760565b611c2a8261081f565b90506004600083815260200190815260200160002060006101000a81549073ffffffffffffffffffffffffffffffffffffffff02191690556001600360008373ffffffffffffffffffffffffffffffffffffffff1673ffffffffffffffffffffffffffffffffffffffff168152602001908152602001600020600082825403925050819055506002600083815260200190815260200160002060006101000a81549073ffffffffffffffffffffffffffffffffffffffff021916905581600073ffffffffffffffffffffffffffffffffffffffff168273ffffffffffffffffffffffffffffffffffffffff167fddf252ad1be2c89b69c2b068fc378daa952ba7f163c4a11628f55a4df523b3ef60405160405180910390a4611d50816000846001611772565b5050565b6000808273ffffffffffffffffffffffffffffffffffffffff163b119050919050565b606060006001611d8684612499565b01905060008167ffffffffffffffff811115611da557611da4612aa4565b5b6040519080825280601f01601f191660200182016040528015611dd75781602001600182028036833780820191505090505b509050600082602001820190505b600115611e44578080600190039150507f3031323334353637383961626364656600000000000000000000000000000000600a86061a8153600a8581611e2e57611e2d61377e565b5b0494506000851415611e3f57611e44565b611de5565b819350505050919050565b600073ffffffffffffffffffffffffffffffffffffffff168273ffffffffffffffffffffffffffffffffffffffff161415611ebf576040517f08c379a0000000000000000000000000000000000000000000000000000000008152600401611eb6906137f9565b60405180910390fd5b611ec88161171f565b15611f08576040517f08c379a0000000000000000000000000000000000000000000000000000000008152600401611eff90613865565b60405180910390fd5b611f16600083836001611760565b611f1f8161171f565b15611f5f576040517f08c379a0000000000000000000000000000000000000000000000000000000008152600401611f5690613865565b60405180910390fd5b6001600360008473ffffffffffffffffffffffffffffffffffffffff1673ffffffffffffffffffffffffffffffffffffffff16815260200190815260200160002060008282540192505081905550816002600083815260200190815260200160002060006101000a81548173ffffffffffffffffffffffffffffffffffffffff021916908373ffffffffffffffffffffffffffffffffffffffff160217905550808273ffffffffffffffffffffffffffffffffffffffff16600073ffffffffffffffffffffffffffffffffffffffff167fddf252ad1be2c89b69c2b068fc378daa952ba7f163c4a11628f55a4df523b3ef60405160405180910390a4612069600083836001611772565b5050565b600181111561218d57600073ffffffffffffffffffffffffffffffffffffffff168473ffffffffffffffffffffffffffffffffffffffff16146121015780600360008673ffffffffffffffffffffffffffffffffffffffff1673ffffffffffffffffffffffffffffffffffffffff16815260200190815260200160002060008282546120f991906138b4565b925050819055505b600073ffffffffffffffffffffffffffffffffffffffff168373ffffffffffffffffffffffffffffffffffffffff161461218c5780600360008573ffffffffffffffffffffffffffffffffffffffff1673ffffffffffffffffffffffffffffffffffffffff168152602001908152602001600020600082825461218491906138e8565b925050819055505b5b50505050565b6008805490506009600083815260200190815260200160002081905550600881908060018154018082558091505060019003906000526020600020016000909190919091505550565b600060016121e9846108a6565b6121f391906138b4565b90506000600760008481526020019081526020016000205490508181146122d8576000600660008673ffffffffffffffffffffffffffffffffffffffff1673ffffffffffffffffffffffffffffffffffffffff168152602001908152602001600020600084815260200190815260200160002054905080600660008773ffffffffffffffffffffffffffffffffffffffff1673ffffffffffffffffffffffffffffffffffffffff168152602001908152602001600020600084815260200190815260200160002081905550816007600083815260200190815260200160002081905550505b6007600084815260200190815260200160002060009055600660008573ffffffffffffffffffffffffffffffffffffffff1673ffffffffffffffffffffffffffffffffffffffff16815260200190815260200160002060008381526020019081526020016000206000905550505050565b6000600160088054905061235d91906138b4565b905060006009600084815260200190815260200160002054905060006008838154811061238d5761238c6130ca565b5b9060005260206000200154905080600883815481106123af576123ae6130ca565b5b9060005260206000200181905550816009600083815260200190815260200160002081905550600960008581526020019081526020016000206000905560088054806123fe576123fd61393e565b5b6001900381819060005260206000200160009055905550505050565b6000612425836108a6565b905081600660008573ffffffffffffffffffffffffffffffffffffffff1673ffffffffffffffffffffffffffffffffffffffff168152602001908152602001600020600083815260200190815260200160002081905550806007600084815260200190815260200160002081905550505050565b600080600090507a184f03e93ff9f4daa797ed6e38ed64bf6a1f01000000000000000083106124f7577a184f03e93ff9f4daa797ed6e38ed64bf6a1f01000000000000000083816124ed576124ec61377e565b5b0492506040810190505b6d04ee2d6d415b85acef81000000008310612534576d04ee2d6d415b85acef8100000000838161252a5761252961377e565b5b0492506020810190505b662386f26fc10000831061256357662386f26fc1000083816125595761255861377e565b5b0492506010810190505b6305f5e100831061258c576305f5e10083816125825761258161377e565b5b0492506008810190505b61271083106125b15761271083816125a7576125a661377e565b5b0492506004810190505b606483106125d457606483816125ca576125c961377e565b5b0492506002810190505b600a83106125e3576001810190505b80915050919050565b8280546125f890612dbe565b90600052602060002090601f01602090048101928261261a5760008555612661565b82601f1061263357805160ff1916838001178555612661565b82800160010185558215612661579182015b82811115612660578251825591602001919060010190612645565b5b50905061266e91906126b2565b5090565b50805461267e90612dbe565b6000825580601f1061269057506126af565b601f0160209004906000526020600020908101906126ae91906126b2565b5b50565b5b808211156126cb5760008160009055506001016126b3565b5090565b6000604051905090565b600080fd5b600080fd5b60007fffffffff0000000000000000000000000000000000000000000000000000000082169050919050565b612718816126e3565b811461272357600080fd5b50565b6000813590506127358161270f565b92915050565b600060208284031215612751576127506126d9565b5b600061275f84828501612726565b91505092915050565b60008115159050919050565b61277d81612768565b82525050565b60006020820190506127986000830184612774565b92915050565b600081519050919050565b600082825260208201905092915050565b60005b838110156127d85780820151818401526020810190506127bd565b838111156127e7576000848401525b50505050565b6000601f19601f8301169050919050565b60006128098261279e565b61281381856127a9565b93506128238185602086016127ba565b61282c816127ed565b840191505092915050565b6000602082019050818103600083015261285181846127fe565b905092915050565b6000819050919050565b61286c81612859565b811461287757600080fd5b50565b60008135905061288981612863565b92915050565b6000602082840312156128a5576128a46126d9565b5b60006128b38482850161287a565b91505092915050565b600073ffffffffffffffffffffffffffffffffffffffff82169050919050565b60006128e7826128bc565b9050919050565b6128f7816128dc565b82525050565b600060208201905061291260008301846128ee565b92915050565b612921816128dc565b811461292c57600080fd5b50565b60008135905061293e81612918565b92915050565b6000806040838503121561295b5761295a6126d9565b5b60006129698582860161292f565b925050602061297a8582860161287a565b9150509250929050565b61298d81612859565b82525050565b60006020820190506129a86000830184612984565b92915050565b6000806000606084860312156129c7576129c66126d9565b5b60006129d58682870161292f565b93505060206129e68682870161292f565b92505060406129f78682870161287a565b9150509250925092565b600060208284031215612a1757612a166126d9565b5b6000612a258482850161292f565b91505092915050565b612a3781612768565b8114612a4257600080fd5b50565b600081359050612a5481612a2e565b92915050565b60008060408385031215612a7157612a706126d9565b5b6000612a7f8582860161292f565b9250506020612a9085828601612a45565b9150509250929050565b600080fd5b600080fd5b7f4e487b7100000000000000000000000000000000000000000000000000000000600052604160045260246000fd5b612adc826127ed565b810181811067ffffffffffffffff82111715612afb57612afa612aa4565b5b80604052505050565b6000612b0e6126cf565b9050612b1a8282612ad3565b919050565b600067ffffffffffffffff821115612b3a57612b39612aa4565b5b612b43826127ed565b9050602081019050919050565b82818337600083830152505050565b6000612b72612b6d84612b1f565b612b04565b905082815260208101848484011115612b8e57612b8d612a9f565b5b612b99848285612b50565b509392505050565b600082601f830112612bb657612bb5612a9a565b5b8135612bc6848260208601612b5f565b91505092915050565b60008060008060808587031215612be957612be86126d9565b5b6000612bf78782880161292f565b9450506020612c088782880161292f565b9350506040612c198782880161287a565b925050606085013567ffffffffffffffff811115612c3a57612c396126de565b5b612c4687828801612ba1565b91505092959194509250565b600067ffffffffffffffff821115612c6d57612c6c612aa4565b5b612c76826127ed565b9050602081019050919050565b6000612c96612c9184612c52565b612b04565b905082815260208101848484011115612cb257612cb1612a9f565b5b612cbd848285612b50565b509392505050565b600082601f830112612cda57612cd9612a9a565b5b8135612cea848260208601612c83565b91505092915050565b60008060408385031215612d0a57612d096126d9565b5b6000612d188582860161292f565b925050602083013567ffffffffffffffff811115612d3957612d386126de565b5b612d4585828601612cc5565b9150509250929050565b60008060408385031215612d6657612d656126d9565b5b6000612d748582860161292f565b9250506020612d858582860161292f565b9150509250929050565b7f4e487b7100000000000000000000000000000000000000000000000000000000600052602260045260246000fd5b60006002820490506001821680612dd657607f821691505b60208210811415612dea57612de9612d8f565b5b50919050565b7f4552433732313a20617070726f76616c20746f2063757272656e74206f776e6560008201527f7200000000000000000000000000000000000000000000000000000000000000602082015250565b6000612e4c6021836127a9565b9150612e5782612df0565b604082019050919050565b60006020820190508181036000830152612e7b81612e3f565b9050919050565b7f4552433732313a20617070726f76652063616c6c6572206973206e6f7420746f60008201527f6b656e206f776e6572206f7220617070726f76656420666f7220616c6c000000602082015250565b6000612ede603d836127a9565b9150612ee982612e82565b604082019050919050565b60006020820190508181036000830152612f0d81612ed1565b9050919050565b7f4552433732313a2063616c6c6572206973206e6f7420746f6b656e206f776e6560008201527f72206f7220617070726f76656400000000000000000000000000000000000000602082015250565b6000612f70602d836127a9565b9150612f7b82612f14565b604082019050919050565b60006020820190508181036000830152612f9f81612f63565b9050919050565b7f455243373231456e756d657261626c653a206f776e657220696e646578206f7560008201527f74206f6620626f756e6473000000000000000000000000000000000000000000602082015250565b6000613002602b836127a9565b915061300d82612fa6565b604082019050919050565b6000602082019050818103600083015261303181612ff5565b9050919050565b7f455243373231456e756d657261626c653a20676c6f62616c20696e646578206f60008201527f7574206f6620626f756e64730000000000000000000000000000000000000000602082015250565b6000613094602c836127a9565b915061309f82613038565b604082019050919050565b600060208201905081810360008301526130c381613087565b9050919050565b7f4e487b7100000000000000000000000000000000000000000000000000000000600052603260045260246000fd5b7f4552433732313a20696e76616c696420746f6b656e2049440000000000000000600082015250565b600061312f6018836127a9565b915061313a826130f9565b602082019050919050565b6000602082019050818103600083015261315e81613122565b9050919050565b7f4552433732313a2061646472657373207a65726f206973206e6f74206120766160008201527f6c6964206f776e65720000000000000000000000000000000000000000000000602082015250565b60006131c16029836127a9565b91506131cc82613165565b604082019050919050565b600060208201905081810360008301526131f0816131b4565b9050919050565b7f4f776e61626c653a206e6577206f776e657220697320746865207a65726f206160008201527f6464726573730000000000000000000000000000000000000000000000000000602082015250565b60006132536026836127a9565b915061325e826131f7565b604082019050919050565b6000602082019050818103600083015261328281613246565b9050919050565b7f4552433732313a207472616e736665722066726f6d20696e636f72726563742060008201527f6f776e6572000000000000000000000000000000000000000000000000000000602082015250565b60006132e56025836127a9565b91506132f082613289565b604082019050919050565b60006020820190508181036000830152613314816132d8565b9050919050565b7f4552433732313a207472616e7366657220746f20746865207a65726f2061646460008201527f7265737300000000000000000000000000000000000000000000000000000000602082015250565b60006133776024836127a9565b91506133828261331b565b604082019050919050565b600060208201905081810360008301526133a68161336a565b9050919050565b7f4f776e61626c653a2063616c6c6572206973206e6f7420746865206f776e6572600082015250565b60006133e36020836127a9565b91506133ee826133ad565b602082019050919050565b60006020820190508181036000830152613412816133d6565b9050919050565b7f4552433732313a20617070726f766520746f2063616c6c657200000000000000600082015250565b600061344f6019836127a9565b915061345a82613419565b602082019050919050565b6000602082019050818103600083015261347e81613442565b9050919050565b7f4552433732313a207472616e7366657220746f206e6f6e20455243373231526560008201527f63656976657220696d706c656d656e7465720000000000000000000000000000602082015250565b60006134e16032836127a9565b91506134ec82613485565b604082019050919050565b60006020820190508181036000830152613510816134d4565b9050919050565b600081905092915050565b600061352d8261279e565b6135378185613517565b93506135478185602086016127ba565b80840191505092915050565b600061355f8285613522565b915061356b8284613522565b91508190509392505050565b7f45524337323155524953746f726167653a2055524920736574206f66206e6f6e60008201527f6578697374656e7420746f6b656e000000000000000000000000000000000000602082015250565b60006135d3602e836127a9565b91506135de82613577565b604082019050919050565b60006020820190508181036000830152613602816135c6565b9050919050565b600081519050919050565b600082825260208201905092915050565b600061363082613609565b61363a8185613614565b935061364a8185602086016127ba565b613653816127ed565b840191505092915050565b600060808201905061367360008301876128ee565b61368060208301866128ee565b61368d6040830185612984565b818103606083015261369f8184613625565b905095945050505050565b6000815190506136b98161270f565b92915050565b6000602082840312156136d5576136d46126d9565b5b60006136e3848285016136aa565b91505092915050565b7f455243373231456e756d657261626c653a20636f6e736563757469766520747260008201527f616e7366657273206e6f7420737570706f727465640000000000000000000000602082015250565b60006137486035836127a9565b9150613753826136ec565b604082019050919050565b600060208201905081810360008301526137778161373b565b9050919050565b7f4e487b7100000000000000000000000000000000000000000000000000000000600052601260045260246000fd5b7f4552433732313a206d696e7420746f20746865207a65726f2061646472657373600082015250565b60006137e36020836127a9565b91506137ee826137ad565b602082019050919050565b60006020820190508181036000830152613812816137d6565b9050919050565b7f4552433732313a20746f6b656e20616c7265616479206d696e74656400000000600082015250565b600061384f601c836127a9565b915061385a82613819565b602082019050919050565b6000602082019050818103600083015261387e81613842565b9050919050565b7f4e487b7100000000000000000000000000000000000000000000000000000000600052601160045260246000fd5b60006138bf82612859565b91506138ca83612859565b9250828210156138dd576138dc613885565b5b828203905092915050565b60006138f382612859565b91506138fe83612859565b9250827fffffffffffffffffffffffffffffffffffffffffffffffffffffffffffffffff0382111561393357613932613885565b5b828201905092915050565b7f4e487b7100000000000000000000000000000000000000000000000000000000600052603160045260246000fdfea26469706673582212200ea2c8b1ef5b0394e64ff544938489673402f51881936a21d10e055761900f7064736f6c63430008090033",
  "linkReferences": {},
  "deployedLinkReferences": {}
}